{
  "_format": "hh-sol-artifact-1",
  "contractName": "Token",
  "sourceName": "contracts/Token.sol",
  "abi": [
    {
      "inputs": [],
      "stateMutability": "nonpayable",
      "type": "constructor"
    },
    {
      "anonymous": false,
      "inputs": [
        {
          "indexed": true,
          "internalType": "address",
          "name": "_from",
          "type": "address"
        },
        {
          "indexed": true,
          "internalType": "address",
          "name": "_to",
          "type": "address"
        },
        {
          "indexed": false,
          "internalType": "uint256",
          "name": "_value",
          "type": "uint256"
        }
      ],
      "name": "Transfer",
      "type": "event"
    },
    {
      "inputs": [
        {
          "internalType": "address",
          "name": "account",
          "type": "address"
        }
      ],
      "name": "balanceOf",
      "outputs": [
        {
          "internalType": "uint256",
          "name": "",
          "type": "uint256"
        }
      ],
      "stateMutability": "view",
      "type": "function"
    },
    {
      "inputs": [],
      "name": "name",
      "outputs": [
        {
          "internalType": "string",
          "name": "",
          "type": "string"
        }
      ],
      "stateMutability": "view",
      "type": "function"
    },
    {
      "inputs": [],
      "name": "owner",
      "outputs": [
        {
          "internalType": "address",
          "name": "",
          "type": "address"
        }
      ],
      "stateMutability": "view",
      "type": "function"
    },
    {
      "inputs": [],
      "name": "symbol",
      "outputs": [
        {
          "internalType": "string",
          "name": "",
          "type": "string"
        }
      ],
      "stateMutability": "view",
      "type": "function"
    },
    {
      "inputs": [],
      "name": "totalSupply",
      "outputs": [
        {
          "internalType": "uint256",
          "name": "",
          "type": "uint256"
        }
      ],
      "stateMutability": "view",
      "type": "function"
    },
    {
      "inputs": [
        {
          "internalType": "address",
          "name": "to",
          "type": "address"
        },
        {
          "internalType": "uint256",
          "name": "amount",
          "type": "uint256"
        }
      ],
      "name": "transfer",
      "outputs": [],
      "stateMutability": "nonpayable",
      "type": "function"
    }
  ],
  "bytecode": "0x60806040526040518060400160405280601081526020017f4d79204861726468617420546f6b656e000000000000000000000000000000008152506000908161004891906104af565b506040518060400160405280600381526020017f4d485400000000000000000000000000000000000000000000000000000000008152506001908161008d91906104af565b50620f42406002553480156100a157600080fd5b506100cd604051806060016040528060338152602001610f4a603391396002543361015960201b60201c565b600254600460003373ffffffffffffffffffffffffffffffffffffffff1673ffffffffffffffffffffffffffffffffffffffff1681526020019081526020016000208190555033600360006101000a81548173ffffffffffffffffffffffffffffffffffffffff021916908373ffffffffffffffffffffffffffffffffffffffff1602179055506106c3565b6101f983838360405160240161017193929190610656565b6040516020818303038152906040527f1c7ec448000000000000000000000000000000000000000000000000000000007bffffffffffffffffffffffffffffffffffffffffffffffffffffffff19166020820180517bffffffffffffffffffffffffffffffffffffffffffffffffffffffff83818316178352505050506101fe60201b60201c565b505050565b61021f8161021a61022260201b6104531761024360201b60201c565b60201c565b50565b60006a636f6e736f6c652e6c6f679050600080835160208501845afa505050565b61025560201b61047417819050919050565b61025d610694565b565b600081519050919050565b7f4e487b7100000000000000000000000000000000000000000000000000000000600052604160045260246000fd5b7f4e487b7100000000000000000000000000000000000000000000000000000000600052602260045260246000fd5b600060028204905060018216806102e057607f821691505b6020821081036102f3576102f2610299565b5b50919050565b60008190508160005260206000209050919050565b60006020601f8301049050919050565b600082821b905092915050565b60006008830261035b7fffffffffffffffffffffffffffffffffffffffffffffffffffffffffffffffff8261031e565b610365868361031e565b95508019841693508086168417925050509392505050565b6000819050919050565b6000819050919050565b60006103ac6103a76103a28461037d565b610387565b61037d565b9050919050565b6000819050919050565b6103c683610391565b6103da6103d2826103b3565b84845461032b565b825550505050565b600090565b6103ef6103e2565b6103fa8184846103bd565b505050565b5b8181101561041e576104136000826103e7565b600181019050610400565b5050565b601f82111561046357610434816102f9565b61043d8461030e565b8101602085101561044c578190505b6104606104588561030e565b8301826103ff565b50505b505050565b600082821c905092915050565b600061048660001984600802610468565b1980831691505092915050565b600061049f8383610475565b9150826002028217905092915050565b6104b88261025f565b67ffffffffffffffff8111156104d1576104d061026a565b5b6104db82546102c8565b6104e6828285610422565b600060209050601f8311600181146105195760008415610507578287015190505b6105118582610493565b865550610579565b601f198416610527866102f9565b60005b8281101561054f5784890151825560018201915060208501945060208101905061052a565b8683101561056c5784890151610568601f891682610475565b8355505b6001600288020188555050505b505050505050565b600082825260208201905092915050565b60005b838110156105b0578082015181840152602081019050610595565b60008484015250505050565b6000601f19601f8301169050919050565b60006105d88261025f565b6105e28185610581565b93506105f2818560208601610592565b6105fb816105bc565b840191505092915050565b61060f8161037d565b82525050565b600073ffffffffffffffffffffffffffffffffffffffff82169050919050565b600061064082610615565b9050919050565b61065081610635565b82525050565b6000606082019050818103600083015261067081866105cd565b905061067f6020830185610606565b61068c6040830184610647565b949350505050565b7f4e487b7100000000000000000000000000000000000000000000000000000000600052605160045260246000fd5b610878806106d26000396000f3fe608060405234801561001057600080fd5b50600436106100625760003560e01c806306fdde031461006757806318160ddd1461008557806370a08231146100a35780638da5cb5b146100d357806395d89b41146100f1578063a9059cbb1461010f575b600080fd5b61006f61012b565b60405161007c919061050e565b60405180910390f35b61008d6101b9565b60405161009a9190610549565b60405180910390f35b6100bd60048036038101906100b891906105c7565b6101bf565b6040516100ca9190610549565b60405180910390f35b6100db610208565b6040516100e89190610603565b60405180910390f35b6100f961022e565b604051610106919061050e565b60405180910390f35b6101296004803603810190610124919061064a565b6102bc565b005b60008054610138906106b9565b80601f0160208091040260200160405190810160405280929190818152602001828054610164906106b9565b80156101b15780601f10610186576101008083540402835291602001916101b1565b820191906000526020600020905b81548152906001019060200180831161019457829003601f168201915b505050505081565b60025481565b6000600460008373ffffffffffffffffffffffffffffffffffffffff1673ffffffffffffffffffffffffffffffffffffffff168152602001908152602001600020549050919050565b600360009054906101000a900473ffffffffffffffffffffffffffffffffffffffff1681565b6001805461023b906106b9565b80601f0160208091040260200160405190810160405280929190818152602001828054610267906106b9565b80156102b45780601f10610289576101008083540402835291602001916102b4565b820191906000526020600020905b81548152906001019060200180831161029757829003601f168201915b505050505081565b80600460003373ffffffffffffffffffffffffffffffffffffffff1673ffffffffffffffffffffffffffffffffffffffff16815260200190815260200160002054101561033e576040517f08c379a00000000000000000000000000000000000000000000000000000000081526004016103359061075c565b60405180910390fd5b80600460003373ffffffffffffffffffffffffffffffffffffffff1673ffffffffffffffffffffffffffffffffffffffff168152602001908152602001600020600082825461038d91906107ab565b9250508190555080600460008473ffffffffffffffffffffffffffffffffffffffff1673ffffffffffffffffffffffffffffffffffffffff16815260200190815260200160002060008282546103e391906107df565b925050819055508173ffffffffffffffffffffffffffffffffffffffff163373ffffffffffffffffffffffffffffffffffffffff167fddf252ad1be2c89b69c2b068fc378daa952ba7f163c4a11628f55a4df523b3ef836040516104479190610549565b60405180910390a35050565b60006a636f6e736f6c652e6c6f679050600080835160208501845afa505050565b61047c610813565b565b600081519050919050565b600082825260208201905092915050565b60005b838110156104b857808201518184015260208101905061049d565b60008484015250505050565b6000601f19601f8301169050919050565b60006104e08261047e565b6104ea8185610489565b93506104fa81856020860161049a565b610503816104c4565b840191505092915050565b6000602082019050818103600083015261052881846104d5565b905092915050565b6000819050919050565b61054381610530565b82525050565b600060208201905061055e600083018461053a565b92915050565b600080fd5b600073ffffffffffffffffffffffffffffffffffffffff82169050919050565b600061059482610569565b9050919050565b6105a481610589565b81146105af57600080fd5b50565b6000813590506105c18161059b565b92915050565b6000602082840312156105dd576105dc610564565b5b60006105eb848285016105b2565b91505092915050565b6105fd81610589565b82525050565b600060208201905061061860008301846105f4565b92915050565b61062781610530565b811461063257600080fd5b50565b6000813590506106448161061e565b92915050565b6000806040838503121561066157610660610564565b5b600061066f858286016105b2565b925050602061068085828601610635565b9150509250929050565b7f4e487b7100000000000000000000000000000000000000000000000000000000600052602260045260246000fd5b600060028204905060018216806106d157607f821691505b6020821081036106e4576106e361068a565b5b50919050565b7fe38388e383bce382afe383b3e3818ce4b88de8b6b3e38197e381a6e38184e38160008201527fbee3819900000000000000000000000000000000000000000000000000000000602082015250565b6000610746602483610489565b9150610751826106ea565b604082019050919050565b6000602082019050818103600083015261077581610739565b9050919050565b7f4e487b7100000000000000000000000000000000000000000000000000000000600052601160045260246000fd5b60006107b682610530565b91506107c183610530565b92508282039050818111156107d9576107d861077c565b5b92915050565b60006107ea82610530565b91506107f583610530565b925082820190508082111561080d5761080c61077c565b5b92915050565b7f4e487b7100000000000000000000000000000000000000000000000000000000600052605160045260246000fdfea264697066735822122032bdb0bafbacdcbc47164e6858e6f6026223f6c05874bbb412025774850427d964736f6c634300081c00334465706c6f79696e6720546f6b656e207769746820746f74616c20737570706c793a20257320616e64206f776e65723a202573",
  "linkReferences": {},
  "deployedLinkReferences": {}
}